{
	"contracts/voting1.sol": {
		"Voting": {
			"abi": [
				{
					"inputs": [],
					"stateMutability": "nonpayable",
					"type": "constructor"
				},
				{
					"inputs": [],
					"name": "partyAVotes",
					"outputs": [
						{
							"internalType": "uint256",
							"name": "",
							"type": "uint256"
						}
					],
					"stateMutability": "view",
					"type": "function"
				},
				{
					"inputs": [],
					"name": "partyBVotes",
					"outputs": [
						{
							"internalType": "uint256",
							"name": "",
							"type": "uint256"
						}
					],
					"stateMutability": "view",
					"type": "function"
				},
				{
					"inputs": [],
					"name": "resetVotes",
					"outputs": [],
					"stateMutability": "nonpayable",
					"type": "function"
				},
				{
					"inputs": [],
					"name": "totalVotes",
					"outputs": [
						{
							"internalType": "uint256",
							"name": "",
							"type": "uint256"
						}
					],
					"stateMutability": "view",
					"type": "function"
				},
				{
					"inputs": [],
					"name": "voteForPartyA",
					"outputs": [],
					"stateMutability": "nonpayable",
					"type": "function"
				},
				{
					"inputs": [],
					"name": "voteForPartyB",
					"outputs": [],
					"stateMutability": "nonpayable",
					"type": "function"
				}
			],
			"devdoc": {
				"kind": "dev",
				"methods": {},
				"version": 1
			},
			"evm": {
				"assembly": "    /* \"contracts/voting1.sol\":60:865  contract Voting {... */\n  mstore(0x40, 0x80)\n    /* \"contracts/voting1.sol\":260:334  constructor() {... */\n  callvalue\n  dup1\n  iszero\n  tag_1\n  jumpi\n  0x00\n  dup1\n  revert\ntag_1:\n  pop\n    /* \"contracts/voting1.sol\":299:300  0 */\n  0x00\n    /* \"contracts/voting1.sol\":285:296  partyAVotes */\n  dup1\n    /* \"contracts/voting1.sol\":285:300  partyAVotes = 0 */\n  dup2\n  swap1\n  sstore\n  pop\n    /* \"contracts/voting1.sol\":325:326  0 */\n  0x00\n    /* \"contracts/voting1.sol\":311:322  partyBVotes */\n  0x01\n    /* \"contracts/voting1.sol\":311:326  partyBVotes = 0 */\n  dup2\n  swap1\n  sstore\n  pop\n    /* \"contracts/voting1.sol\":60:865  contract Voting {... */\n  dataSize(sub_0)\n  dup1\n  dataOffset(sub_0)\n  0x00\n  codecopy\n  0x00\n  return\nstop\n\nsub_0: assembly {\n        /* \"contracts/voting1.sol\":60:865  contract Voting {... */\n      mstore(0x40, 0x80)\n      callvalue\n      dup1\n      iszero\n      tag_1\n      jumpi\n      0x00\n      dup1\n      revert\n    tag_1:\n      pop\n      jumpi(tag_2, lt(calldatasize, 0x04))\n      shr(0xe0, calldataload(0x00))\n      dup1\n      0x0d15fd77\n      eq\n      tag_3\n      jumpi\n      dup1\n      0x142b7cb3\n      eq\n      tag_4\n      jumpi\n      dup1\n      0x8947af2e\n      eq\n      tag_5\n      jumpi\n      dup1\n      0xb552c178\n      eq\n      tag_6\n      jumpi\n      dup1\n      0xb9830ff1\n      eq\n      tag_7\n      jumpi\n      dup1\n      0xbbb0d194\n      eq\n      tag_8\n      jumpi\n    tag_2:\n      0x00\n      dup1\n      revert\n        /* \"contracts/voting1.sol\":762:862  function totalVotes() public view returns (uint) {... */\n    tag_3:\n      tag_9\n      tag_10\n      jump\t// in\n    tag_9:\n      mload(0x40)\n      tag_11\n      swap2\n      swap1\n      tag_12\n      jump\t// in\n    tag_11:\n      mload(0x40)\n      dup1\n      swap2\n      sub\n      swap1\n      return\n        /* \"contracts/voting1.sol\":385:452  function voteForPartyA() public {... */\n    tag_4:\n      tag_13\n      tag_14\n      jump\t// in\n    tag_13:\n      stop\n        /* \"contracts/voting1.sol\":148:171  uint public partyAVotes */\n    tag_5:\n      tag_15\n      tag_16\n      jump\t// in\n    tag_15:\n      mload(0x40)\n      tag_17\n      swap2\n      swap1\n      tag_12\n      jump\t// in\n    tag_17:\n      mload(0x40)\n      dup1\n      swap2\n      sub\n      swap1\n      return\n        /* \"contracts/voting1.sol\":503:570  function voteForPartyB() public {... */\n    tag_6:\n      tag_18\n      tag_19\n      jump\t// in\n    tag_18:\n      stop\n        /* \"contracts/voting1.sol\":614:703  function resetVotes() public {... */\n    tag_7:\n      tag_20\n      tag_21\n      jump\t// in\n    tag_20:\n      stop\n        /* \"contracts/voting1.sol\":178:201  uint public partyBVotes */\n    tag_8:\n      tag_22\n      tag_23\n      jump\t// in\n    tag_22:\n      mload(0x40)\n      tag_24\n      swap2\n      swap1\n      tag_12\n      jump\t// in\n    tag_24:\n      mload(0x40)\n      dup1\n      swap2\n      sub\n      swap1\n      return\n        /* \"contracts/voting1.sol\":762:862  function totalVotes() public view returns (uint) {... */\n    tag_10:\n        /* \"contracts/voting1.sol\":805:809  uint */\n      0x00\n        /* \"contracts/voting1.sol\":843:854  partyBVotes */\n      sload(0x01)\n        /* \"contracts/voting1.sol\":829:840  partyAVotes */\n      sload(0x00)\n        /* \"contracts/voting1.sol\":829:854  partyAVotes + partyBVotes */\n      tag_26\n      swap2\n      swap1\n      tag_27\n      jump\t// in\n    tag_26:\n        /* \"contracts/voting1.sol\":822:854  return partyAVotes + partyBVotes */\n      swap1\n      pop\n        /* \"contracts/voting1.sol\":762:862  function totalVotes() public view returns (uint) {... */\n      swap1\n      jump\t// out\n        /* \"contracts/voting1.sol\":385:452  function voteForPartyA() public {... */\n    tag_14:\n        /* \"contracts/voting1.sol\":443:444  1 */\n      0x01\n        /* \"contracts/voting1.sol\":428:439  partyAVotes */\n      0x00\n      dup1\n        /* \"contracts/voting1.sol\":428:444  partyAVotes += 1 */\n      dup3\n      dup3\n      sload\n      tag_29\n      swap2\n      swap1\n      tag_27\n      jump\t// in\n    tag_29:\n      swap3\n      pop\n      pop\n      dup2\n      swap1\n      sstore\n      pop\n        /* \"contracts/voting1.sol\":385:452  function voteForPartyA() public {... */\n      jump\t// out\n        /* \"contracts/voting1.sol\":148:171  uint public partyAVotes */\n    tag_16:\n      sload(0x00)\n      dup2\n      jump\t// out\n        /* \"contracts/voting1.sol\":503:570  function voteForPartyB() public {... */\n    tag_19:\n        /* \"contracts/voting1.sol\":561:562  1 */\n      0x01\n        /* \"contracts/voting1.sol\":546:557  partyBVotes */\n      dup1\n      0x00\n        /* \"contracts/voting1.sol\":546:562  partyBVotes += 1 */\n      dup3\n      dup3\n      sload\n      tag_31\n      swap2\n      swap1\n      tag_27\n      jump\t// in\n    tag_31:\n      swap3\n      pop\n      pop\n      dup2\n      swap1\n      sstore\n      pop\n        /* \"contracts/voting1.sol\":503:570  function voteForPartyB() public {... */\n      jump\t// out\n        /* \"contracts/voting1.sol\":614:703  function resetVotes() public {... */\n    tag_21:\n        /* \"contracts/voting1.sol\":668:669  0 */\n      0x00\n        /* \"contracts/voting1.sol\":654:665  partyAVotes */\n      dup1\n        /* \"contracts/voting1.sol\":654:669  partyAVotes = 0 */\n      dup2\n      swap1\n      sstore\n      pop\n        /* \"contracts/voting1.sol\":694:695  0 */\n      0x00\n        /* \"contracts/voting1.sol\":680:691  partyBVotes */\n      0x01\n        /* \"contracts/voting1.sol\":680:695  partyBVotes = 0 */\n      dup2\n      swap1\n      sstore\n      pop\n        /* \"contracts/voting1.sol\":614:703  function resetVotes() public {... */\n      jump\t// out\n        /* \"contracts/voting1.sol\":178:201  uint public partyBVotes */\n    tag_23:\n      sload(0x01)\n      dup2\n      jump\t// out\n        /* \"#utility.yul\":7:84   */\n    tag_33:\n        /* \"#utility.yul\":44:51   */\n      0x00\n        /* \"#utility.yul\":73:78   */\n      dup2\n        /* \"#utility.yul\":62:78   */\n      swap1\n      pop\n        /* \"#utility.yul\":7:84   */\n      swap2\n      swap1\n      pop\n      jump\t// out\n        /* \"#utility.yul\":90:208   */\n    tag_34:\n        /* \"#utility.yul\":177:201   */\n      tag_39\n        /* \"#utility.yul\":195:200   */\n      dup2\n        /* \"#utility.yul\":177:201   */\n      tag_33\n      jump\t// in\n    tag_39:\n        /* \"#utility.yul\":172:175   */\n      dup3\n        /* \"#utility.yul\":165:202   */\n      mstore\n        /* \"#utility.yul\":90:208   */\n      pop\n      pop\n      jump\t// out\n        /* \"#utility.yul\":214:436   */\n    tag_12:\n        /* \"#utility.yul\":307:311   */\n      0x00\n        /* \"#utility.yul\":345:347   */\n      0x20\n        /* \"#utility.yul\":334:343   */\n      dup3\n        /* \"#utility.yul\":330:348   */\n      add\n        /* \"#utility.yul\":322:348   */\n      swap1\n      pop\n        /* \"#utility.yul\":358:429   */\n      tag_41\n        /* \"#utility.yul\":426:427   */\n      0x00\n        /* \"#utility.yul\":415:424   */\n      dup4\n        /* \"#utility.yul\":411:428   */\n      add\n        /* \"#utility.yul\":402:408   */\n      dup5\n        /* \"#utility.yul\":358:429   */\n      tag_34\n      jump\t// in\n    tag_41:\n        /* \"#utility.yul\":214:436   */\n      swap3\n      swap2\n      pop\n      pop\n      jump\t// out\n        /* \"#utility.yul\":442:622   */\n    tag_35:\n        /* \"#utility.yul\":490:567   */\n      0x4e487b7100000000000000000000000000000000000000000000000000000000\n        /* \"#utility.yul\":487:488   */\n      0x00\n        /* \"#utility.yul\":480:568   */\n      mstore\n        /* \"#utility.yul\":587:591   */\n      0x11\n        /* \"#utility.yul\":584:585   */\n      0x04\n        /* \"#utility.yul\":577:592   */\n      mstore\n        /* \"#utility.yul\":611:615   */\n      0x24\n        /* \"#utility.yul\":608:609   */\n      0x00\n        /* \"#utility.yul\":601:616   */\n      revert\n        /* \"#utility.yul\":628:819   */\n    tag_27:\n        /* \"#utility.yul\":668:671   */\n      0x00\n        /* \"#utility.yul\":687:707   */\n      tag_44\n        /* \"#utility.yul\":705:706   */\n      dup3\n        /* \"#utility.yul\":687:707   */\n      tag_33\n      jump\t// in\n    tag_44:\n        /* \"#utility.yul\":682:707   */\n      swap2\n      pop\n        /* \"#utility.yul\":721:741   */\n      tag_45\n        /* \"#utility.yul\":739:740   */\n      dup4\n        /* \"#utility.yul\":721:741   */\n      tag_33\n      jump\t// in\n    tag_45:\n        /* \"#utility.yul\":716:741   */\n      swap3\n      pop\n        /* \"#utility.yul\":764:765   */\n      dup3\n        /* \"#utility.yul\":761:762   */\n      dup3\n        /* \"#utility.yul\":757:766   */\n      add\n        /* \"#utility.yul\":750:766   */\n      swap1\n      pop\n        /* \"#utility.yul\":785:788   */\n      dup1\n        /* \"#utility.yul\":782:783   */\n      dup3\n        /* \"#utility.yul\":779:789   */\n      gt\n        /* \"#utility.yul\":776:812   */\n      iszero\n      tag_46\n      jumpi\n        /* \"#utility.yul\":792:810   */\n      tag_47\n      tag_35\n      jump\t// in\n    tag_47:\n        /* \"#utility.yul\":776:812   */\n    tag_46:\n        /* \"#utility.yul\":628:819   */\n      swap3\n      swap2\n      pop\n      pop\n      jump\t// out\n\n    auxdata: 0xa2646970667358221220f9b62c6dca00d920816853c8f8ddff2a8fe77060a4b3e408752faa9efb9b83c864736f6c634300081a0033\n}\n",
				"bytecode": {
					"linkReferences": {},
					"object": "6080604052348015600e575f80fd5b505f80819055505f600181905550610206806100295f395ff3fe608060405234801561000f575f80fd5b5060043610610060575f3560e01c80630d15fd7714610064578063142b7cb3146100825780638947af2e1461008c578063b552c178146100aa578063b9830ff1146100b4578063bbb0d194146100be575b5f80fd5b61006c6100dc565b6040516100799190610157565b60405180910390f35b61008a6100f1565b005b61009461010b565b6040516100a19190610157565b60405180910390f35b6100b2610110565b005b6100bc61012a565b005b6100c6610139565b6040516100d39190610157565b60405180910390f35b5f6001545f546100ec919061019d565b905090565b60015f80828254610102919061019d565b92505081905550565b5f5481565b6001805f828254610121919061019d565b92505081905550565b5f80819055505f600181905550565b60015481565b5f819050919050565b6101518161013f565b82525050565b5f60208201905061016a5f830184610148565b92915050565b7f4e487b71000000000000000000000000000000000000000000000000000000005f52601160045260245ffd5b5f6101a78261013f565b91506101b28361013f565b92508282019050808211156101ca576101c9610170565b5b9291505056fea2646970667358221220f9b62c6dca00d920816853c8f8ddff2a8fe77060a4b3e408752faa9efb9b83c864736f6c634300081a0033",
					"opcodes": "PUSH1 0x80 PUSH1 0x40 MSTORE CALLVALUE DUP1 ISZERO PUSH1 0xE JUMPI PUSH0 DUP1 REVERT JUMPDEST POP PUSH0 DUP1 DUP2 SWAP1 SSTORE POP PUSH0 PUSH1 0x1 DUP2 SWAP1 SSTORE POP PUSH2 0x206 DUP1 PUSH2 0x29 PUSH0 CODECOPY PUSH0 RETURN INVALID PUSH1 0x80 PUSH1 0x40 MSTORE CALLVALUE DUP1 ISZERO PUSH2 0xF JUMPI PUSH0 DUP1 REVERT JUMPDEST POP PUSH1 0x4 CALLDATASIZE LT PUSH2 0x60 JUMPI PUSH0 CALLDATALOAD PUSH1 0xE0 SHR DUP1 PUSH4 0xD15FD77 EQ PUSH2 0x64 JUMPI DUP1 PUSH4 0x142B7CB3 EQ PUSH2 0x82 JUMPI DUP1 PUSH4 0x8947AF2E EQ PUSH2 0x8C JUMPI DUP1 PUSH4 0xB552C178 EQ PUSH2 0xAA JUMPI DUP1 PUSH4 0xB9830FF1 EQ PUSH2 0xB4 JUMPI DUP1 PUSH4 0xBBB0D194 EQ PUSH2 0xBE JUMPI JUMPDEST PUSH0 DUP1 REVERT JUMPDEST PUSH2 0x6C PUSH2 0xDC JUMP JUMPDEST PUSH1 0x40 MLOAD PUSH2 0x79 SWAP2 SWAP1 PUSH2 0x157 JUMP JUMPDEST PUSH1 0x40 MLOAD DUP1 SWAP2 SUB SWAP1 RETURN JUMPDEST PUSH2 0x8A PUSH2 0xF1 JUMP JUMPDEST STOP JUMPDEST PUSH2 0x94 PUSH2 0x10B JUMP JUMPDEST PUSH1 0x40 MLOAD PUSH2 0xA1 SWAP2 SWAP1 PUSH2 0x157 JUMP JUMPDEST PUSH1 0x40 MLOAD DUP1 SWAP2 SUB SWAP1 RETURN JUMPDEST PUSH2 0xB2 PUSH2 0x110 JUMP JUMPDEST STOP JUMPDEST PUSH2 0xBC PUSH2 0x12A JUMP JUMPDEST STOP JUMPDEST PUSH2 0xC6 PUSH2 0x139 JUMP JUMPDEST PUSH1 0x40 MLOAD PUSH2 0xD3 SWAP2 SWAP1 PUSH2 0x157 JUMP JUMPDEST PUSH1 0x40 MLOAD DUP1 SWAP2 SUB SWAP1 RETURN JUMPDEST PUSH0 PUSH1 0x1 SLOAD PUSH0 SLOAD PUSH2 0xEC SWAP2 SWAP1 PUSH2 0x19D JUMP JUMPDEST SWAP1 POP SWAP1 JUMP JUMPDEST PUSH1 0x1 PUSH0 DUP1 DUP3 DUP3 SLOAD PUSH2 0x102 SWAP2 SWAP1 PUSH2 0x19D JUMP JUMPDEST SWAP3 POP POP DUP2 SWAP1 SSTORE POP JUMP JUMPDEST PUSH0 SLOAD DUP2 JUMP JUMPDEST PUSH1 0x1 DUP1 PUSH0 DUP3 DUP3 SLOAD PUSH2 0x121 SWAP2 SWAP1 PUSH2 0x19D JUMP JUMPDEST SWAP3 POP POP DUP2 SWAP1 SSTORE POP JUMP JUMPDEST PUSH0 DUP1 DUP2 SWAP1 SSTORE POP PUSH0 PUSH1 0x1 DUP2 SWAP1 SSTORE POP JUMP JUMPDEST PUSH1 0x1 SLOAD DUP2 JUMP JUMPDEST PUSH0 DUP2 SWAP1 POP SWAP2 SWAP1 POP JUMP JUMPDEST PUSH2 0x151 DUP2 PUSH2 0x13F JUMP JUMPDEST DUP3 MSTORE POP POP JUMP JUMPDEST PUSH0 PUSH1 0x20 DUP3 ADD SWAP1 POP PUSH2 0x16A PUSH0 DUP4 ADD DUP5 PUSH2 0x148 JUMP JUMPDEST SWAP3 SWAP2 POP POP JUMP JUMPDEST PUSH32 0x4E487B7100000000000000000000000000000000000000000000000000000000 PUSH0 MSTORE PUSH1 0x11 PUSH1 0x4 MSTORE PUSH1 0x24 PUSH0 REVERT JUMPDEST PUSH0 PUSH2 0x1A7 DUP3 PUSH2 0x13F JUMP JUMPDEST SWAP2 POP PUSH2 0x1B2 DUP4 PUSH2 0x13F JUMP JUMPDEST SWAP3 POP DUP3 DUP3 ADD SWAP1 POP DUP1 DUP3 GT ISZERO PUSH2 0x1CA JUMPI PUSH2 0x1C9 PUSH2 0x170 JUMP JUMPDEST JUMPDEST SWAP3 SWAP2 POP POP JUMP INVALID LOG2 PUSH5 0x6970667358 0x22 SLT KECCAK256 0xF9 0xB6 0x2C PUSH14 0xCA00D920816853C8F8DDFF2A8FE7 PUSH17 0x60A4B3E408752FAA9EFB9B83C864736F6C PUSH4 0x4300081A STOP CALLER "
				},
				"gasEstimates": {
					"creation": {
						"codeDepositCost": "103600",
						"executionCost": "10177",
						"totalCost": "113777"
					},
					"external": {
						"partyAVotes()": "2446",
						"partyBVotes()": "2513",
						"resetVotes()": "10235",
						"totalVotes()": "infinite",
						"voteForPartyA()": "infinite",
						"voteForPartyB()": "infinite"
					}
				},
				"methodIdentifiers": {
					"partyAVotes()": "8947af2e",
					"partyBVotes()": "bbb0d194",
					"resetVotes()": "b9830ff1",
					"totalVotes()": "0d15fd77",
					"voteForPartyA()": "142b7cb3",
					"voteForPartyB()": "b552c178"
				}
			},
			"storageLayout": {
				"storage": [
					{
						"astId": 3,
						"contract": "contracts/voting1.sol:Voting",
						"label": "partyAVotes",
						"offset": 0,
						"slot": "0",
						"type": "t_uint256"
					},
					{
						"astId": 5,
						"contract": "contracts/voting1.sol:Voting",
						"label": "partyBVotes",
						"offset": 0,
						"slot": "1",
						"type": "t_uint256"
					}
				],
				"types": {
					"t_uint256": {
						"encoding": "inplace",
						"label": "uint256",
						"numberOfBytes": "32"
					}
				}
			},
			"userdoc": {
				"kind": "user",
				"methods": {},
				"version": 1
			}
		}
	}
}