{
	"contracts/bank2.sol": {
		"Bank2": {
			"abi": [
				{
					"inputs": [
						{
							"internalType": "uint256",
							"name": "rate",
							"type": "uint256"
						}
					],
					"name": "CalcInterest",
					"outputs": [
						{
							"internalType": "uint256",
							"name": "",
							"type": "uint256"
						}
					],
					"stateMutability": "view",
					"type": "function"
				},
				{
					"inputs": [
						{
							"internalType": "uint256",
							"name": "rate",
							"type": "uint256"
						}
					],
					"name": "addInterest",
					"outputs": [],
					"stateMutability": "nonpayable",
					"type": "function"
				},
				{
					"inputs": [],
					"name": "balance",
					"outputs": [
						{
							"internalType": "uint256",
							"name": "",
							"type": "uint256"
						}
					],
					"stateMutability": "view",
					"type": "function"
				},
				{
					"inputs": [
						{
							"internalType": "uint256",
							"name": "amount",
							"type": "uint256"
						}
					],
					"name": "deposit",
					"outputs": [],
					"stateMutability": "nonpayable",
					"type": "function"
				}
			],
			"devdoc": {
				"kind": "dev",
				"methods": {},
				"version": 1
			},
			"evm": {
				"assembly": "    /* \"contracts/bank2.sol\":60:781  contract Bank2{... */\n  mstore(0x40, 0x80)\n  callvalue\n  dup1\n  iszero\n  tag_1\n  jumpi\n  0x00\n  dup1\n  revert\ntag_1:\n  pop\n  dataSize(sub_0)\n  dup1\n  dataOffset(sub_0)\n  0x00\n  codecopy\n  0x00\n  return\nstop\n\nsub_0: assembly {\n        /* \"contracts/bank2.sol\":60:781  contract Bank2{... */\n      mstore(0x40, 0x80)\n      callvalue\n      dup1\n      iszero\n      tag_1\n      jumpi\n      0x00\n      dup1\n      revert\n    tag_1:\n      pop\n      jumpi(tag_2, lt(calldatasize, 0x04))\n      shr(0xe0, calldataload(0x00))\n      dup1\n      0x3290f515\n      eq\n      tag_3\n      jumpi\n      dup1\n      0xb416e910\n      eq\n      tag_4\n      jumpi\n      dup1\n      0xb69ef8a8\n      eq\n      tag_5\n      jumpi\n      dup1\n      0xb6b55f25\n      eq\n      tag_6\n      jumpi\n    tag_2:\n      0x00\n      dup1\n      revert\n        /* \"contracts/bank2.sol\":577:766  function addInterest(uint rate) public {... */\n    tag_3:\n      tag_7\n      0x04\n      dup1\n      calldatasize\n      sub\n      dup2\n      add\n      swap1\n      tag_8\n      swap2\n      swap1\n      tag_9\n      jump\t// in\n    tag_8:\n      tag_10\n      jump\t// in\n    tag_7:\n      stop\n        /* \"contracts/bank2.sol\":419:535  function CalcInterest(uint rate) public view returns(uint)... */\n    tag_4:\n      tag_11\n      0x04\n      dup1\n      calldatasize\n      sub\n      dup2\n      add\n      swap1\n      tag_12\n      swap2\n      swap1\n      tag_9\n      jump\t// in\n    tag_12:\n      tag_13\n      jump\t// in\n    tag_11:\n      mload(0x40)\n      tag_14\n      swap2\n      swap1\n      tag_15\n      jump\t// in\n    tag_14:\n      mload(0x40)\n      dup1\n      swap2\n      sub\n      swap1\n      return\n        /* \"contracts/bank2.sol\":81:100  uint public balance */\n    tag_5:\n      tag_16\n      tag_17\n      jump\t// in\n    tag_16:\n      mload(0x40)\n      tag_18\n      swap2\n      swap1\n      tag_15\n      jump\t// in\n    tag_18:\n      mload(0x40)\n      dup1\n      swap2\n      sub\n      swap1\n      return\n        /* \"contracts/bank2.sol\":150:255  function deposit(uint amount) public  //state-changing function... */\n    tag_6:\n      tag_19\n      0x04\n      dup1\n      calldatasize\n      sub\n      dup2\n      add\n      swap1\n      tag_20\n      swap2\n      swap1\n      tag_9\n      jump\t// in\n    tag_20:\n      tag_21\n      jump\t// in\n    tag_19:\n      stop\n        /* \"contracts/bank2.sol\":577:766  function addInterest(uint rate) public {... */\n    tag_10:\n        /* \"contracts/bank2.sol\":627:640  uint interest */\n      0x00\n        /* \"contracts/bank2.sol\":643:661  CalcInterest(rate) */\n      tag_23\n        /* \"contracts/bank2.sol\":656:660  rate */\n      dup3\n        /* \"contracts/bank2.sol\":643:655  CalcInterest */\n      tag_13\n        /* \"contracts/bank2.sol\":643:661  CalcInterest(rate) */\n      jump\t// in\n    tag_23:\n        /* \"contracts/bank2.sol\":627:661  uint interest = CalcInterest(rate) */\n      swap1\n      pop\n        /* \"contracts/bank2.sol\":709:717  interest */\n      dup1\n        /* \"contracts/bank2.sol\":698:705  balance */\n      0x00\n      dup1\n        /* \"contracts/bank2.sol\":698:717  balance += interest */\n      dup3\n      dup3\n      sload\n      tag_24\n      swap2\n      swap1\n      tag_25\n      jump\t// in\n    tag_24:\n      swap3\n      pop\n      pop\n      dup2\n      swap1\n      sstore\n      pop\n        /* \"contracts/bank2.sol\":616:766  {... */\n      pop\n        /* \"contracts/bank2.sol\":577:766  function addInterest(uint rate) public {... */\n      pop\n      jump\t// out\n        /* \"contracts/bank2.sol\":419:535  function CalcInterest(uint rate) public view returns(uint)... */\n    tag_13:\n        /* \"contracts/bank2.sol\":472:476  uint */\n      0x00\n        /* \"contracts/bank2.sol\":515:518  100 */\n      0x64\n        /* \"contracts/bank2.sol\":509:513  rate */\n      dup3\n        /* \"contracts/bank2.sol\":501:508  balance */\n      sload(0x00)\n        /* \"contracts/bank2.sol\":501:513  balance*rate */\n      tag_27\n      swap2\n      swap1\n      tag_28\n      jump\t// in\n    tag_27:\n        /* \"contracts/bank2.sol\":500:518  (balance*rate)/100 */\n      tag_29\n      swap2\n      swap1\n      tag_30\n      jump\t// in\n    tag_29:\n        /* \"contracts/bank2.sol\":493:518  return (balance*rate)/100 */\n      swap1\n      pop\n        /* \"contracts/bank2.sol\":419:535  function CalcInterest(uint rate) public view returns(uint)... */\n      swap2\n      swap1\n      pop\n      jump\t// out\n        /* \"contracts/bank2.sol\":81:100  uint public balance */\n    tag_17:\n      sload(0x00)\n      dup2\n      jump\t// out\n        /* \"contracts/bank2.sol\":150:255  function deposit(uint amount) public  //state-changing function... */\n    tag_21:\n        /* \"contracts/bank2.sol\":241:247  amount */\n      dup1\n        /* \"contracts/bank2.sol\":230:237  balance */\n      0x00\n      dup1\n        /* \"contracts/bank2.sol\":230:247  balance += amount */\n      dup3\n      dup3\n      sload\n      tag_32\n      swap2\n      swap1\n      tag_25\n      jump\t// in\n    tag_32:\n      swap3\n      pop\n      pop\n      dup2\n      swap1\n      sstore\n      pop\n        /* \"contracts/bank2.sol\":150:255  function deposit(uint amount) public  //state-changing function... */\n      pop\n      jump\t// out\n        /* \"#utility.yul\":88:205   */\n    tag_34:\n        /* \"#utility.yul\":197:198   */\n      0x00\n        /* \"#utility.yul\":194:195   */\n      dup1\n        /* \"#utility.yul\":187:199   */\n      revert\n        /* \"#utility.yul\":334:411   */\n    tag_36:\n        /* \"#utility.yul\":371:378   */\n      0x00\n        /* \"#utility.yul\":400:405   */\n      dup2\n        /* \"#utility.yul\":389:405   */\n      swap1\n      pop\n        /* \"#utility.yul\":334:411   */\n      swap2\n      swap1\n      pop\n      jump\t// out\n        /* \"#utility.yul\":417:539   */\n    tag_37:\n        /* \"#utility.yul\":490:514   */\n      tag_48\n        /* \"#utility.yul\":508:513   */\n      dup2\n        /* \"#utility.yul\":490:514   */\n      tag_36\n      jump\t// in\n    tag_48:\n        /* \"#utility.yul\":483:488   */\n      dup2\n        /* \"#utility.yul\":480:515   */\n      eq\n        /* \"#utility.yul\":470:533   */\n      tag_49\n      jumpi\n        /* \"#utility.yul\":529:530   */\n      0x00\n        /* \"#utility.yul\":526:527   */\n      dup1\n        /* \"#utility.yul\":519:531   */\n      revert\n        /* \"#utility.yul\":470:533   */\n    tag_49:\n        /* \"#utility.yul\":417:539   */\n      pop\n      jump\t// out\n        /* \"#utility.yul\":545:684   */\n    tag_38:\n        /* \"#utility.yul\":591:596   */\n      0x00\n        /* \"#utility.yul\":629:635   */\n      dup2\n        /* \"#utility.yul\":616:636   */\n      calldataload\n        /* \"#utility.yul\":607:636   */\n      swap1\n      pop\n        /* \"#utility.yul\":645:678   */\n      tag_51\n        /* \"#utility.yul\":672:677   */\n      dup2\n        /* \"#utility.yul\":645:678   */\n      tag_37\n      jump\t// in\n    tag_51:\n        /* \"#utility.yul\":545:684   */\n      swap3\n      swap2\n      pop\n      pop\n      jump\t// out\n        /* \"#utility.yul\":690:1019   */\n    tag_9:\n        /* \"#utility.yul\":749:755   */\n      0x00\n        /* \"#utility.yul\":798:800   */\n      0x20\n        /* \"#utility.yul\":786:795   */\n      dup3\n        /* \"#utility.yul\":777:784   */\n      dup5\n        /* \"#utility.yul\":773:796   */\n      sub\n        /* \"#utility.yul\":769:801   */\n      slt\n        /* \"#utility.yul\":766:885   */\n      iszero\n      tag_53\n      jumpi\n        /* \"#utility.yul\":804:883   */\n      tag_54\n      tag_34\n      jump\t// in\n    tag_54:\n        /* \"#utility.yul\":766:885   */\n    tag_53:\n        /* \"#utility.yul\":924:925   */\n      0x00\n        /* \"#utility.yul\":949:1002   */\n      tag_55\n        /* \"#utility.yul\":994:1001   */\n      dup5\n        /* \"#utility.yul\":985:991   */\n      dup3\n        /* \"#utility.yul\":974:983   */\n      dup6\n        /* \"#utility.yul\":970:992   */\n      add\n        /* \"#utility.yul\":949:1002   */\n      tag_38\n      jump\t// in\n    tag_55:\n        /* \"#utility.yul\":939:1002   */\n      swap2\n      pop\n        /* \"#utility.yul\":895:1012   */\n      pop\n        /* \"#utility.yul\":690:1019   */\n      swap3\n      swap2\n      pop\n      pop\n      jump\t// out\n        /* \"#utility.yul\":1025:1143   */\n    tag_39:\n        /* \"#utility.yul\":1112:1136   */\n      tag_57\n        /* \"#utility.yul\":1130:1135   */\n      dup2\n        /* \"#utility.yul\":1112:1136   */\n      tag_36\n      jump\t// in\n    tag_57:\n        /* \"#utility.yul\":1107:1110   */\n      dup3\n        /* \"#utility.yul\":1100:1137   */\n      mstore\n        /* \"#utility.yul\":1025:1143   */\n      pop\n      pop\n      jump\t// out\n        /* \"#utility.yul\":1149:1371   */\n    tag_15:\n        /* \"#utility.yul\":1242:1246   */\n      0x00\n        /* \"#utility.yul\":1280:1282   */\n      0x20\n        /* \"#utility.yul\":1269:1278   */\n      dup3\n        /* \"#utility.yul\":1265:1283   */\n      add\n        /* \"#utility.yul\":1257:1283   */\n      swap1\n      pop\n        /* \"#utility.yul\":1293:1364   */\n      tag_59\n        /* \"#utility.yul\":1361:1362   */\n      0x00\n        /* \"#utility.yul\":1350:1359   */\n      dup4\n        /* \"#utility.yul\":1346:1363   */\n      add\n        /* \"#utility.yul\":1337:1343   */\n      dup5\n        /* \"#utility.yul\":1293:1364   */\n      tag_39\n      jump\t// in\n    tag_59:\n        /* \"#utility.yul\":1149:1371   */\n      swap3\n      swap2\n      pop\n      pop\n      jump\t// out\n        /* \"#utility.yul\":1377:1557   */\n    tag_40:\n        /* \"#utility.yul\":1425:1502   */\n      0x4e487b7100000000000000000000000000000000000000000000000000000000\n        /* \"#utility.yul\":1422:1423   */\n      0x00\n        /* \"#utility.yul\":1415:1503   */\n      mstore\n        /* \"#utility.yul\":1522:1526   */\n      0x11\n        /* \"#utility.yul\":1519:1520   */\n      0x04\n        /* \"#utility.yul\":1512:1527   */\n      mstore\n        /* \"#utility.yul\":1546:1550   */\n      0x24\n        /* \"#utility.yul\":1543:1544   */\n      0x00\n        /* \"#utility.yul\":1536:1551   */\n      revert\n        /* \"#utility.yul\":1563:1754   */\n    tag_25:\n        /* \"#utility.yul\":1603:1606   */\n      0x00\n        /* \"#utility.yul\":1622:1642   */\n      tag_62\n        /* \"#utility.yul\":1640:1641   */\n      dup3\n        /* \"#utility.yul\":1622:1642   */\n      tag_36\n      jump\t// in\n    tag_62:\n        /* \"#utility.yul\":1617:1642   */\n      swap2\n      pop\n        /* \"#utility.yul\":1656:1676   */\n      tag_63\n        /* \"#utility.yul\":1674:1675   */\n      dup4\n        /* \"#utility.yul\":1656:1676   */\n      tag_36\n      jump\t// in\n    tag_63:\n        /* \"#utility.yul\":1651:1676   */\n      swap3\n      pop\n        /* \"#utility.yul\":1699:1700   */\n      dup3\n        /* \"#utility.yul\":1696:1697   */\n      dup3\n        /* \"#utility.yul\":1692:1701   */\n      add\n        /* \"#utility.yul\":1685:1701   */\n      swap1\n      pop\n        /* \"#utility.yul\":1720:1723   */\n      dup1\n        /* \"#utility.yul\":1717:1718   */\n      dup3\n        /* \"#utility.yul\":1714:1724   */\n      gt\n        /* \"#utility.yul\":1711:1747   */\n      iszero\n      tag_64\n      jumpi\n        /* \"#utility.yul\":1727:1745   */\n      tag_65\n      tag_40\n      jump\t// in\n    tag_65:\n        /* \"#utility.yul\":1711:1747   */\n    tag_64:\n        /* \"#utility.yul\":1563:1754   */\n      swap3\n      swap2\n      pop\n      pop\n      jump\t// out\n        /* \"#utility.yul\":1760:2170   */\n    tag_28:\n        /* \"#utility.yul\":1800:1807   */\n      0x00\n        /* \"#utility.yul\":1823:1843   */\n      tag_67\n        /* \"#utility.yul\":1841:1842   */\n      dup3\n        /* \"#utility.yul\":1823:1843   */\n      tag_36\n      jump\t// in\n    tag_67:\n        /* \"#utility.yul\":1818:1843   */\n      swap2\n      pop\n        /* \"#utility.yul\":1857:1877   */\n      tag_68\n        /* \"#utility.yul\":1875:1876   */\n      dup4\n        /* \"#utility.yul\":1857:1877   */\n      tag_36\n      jump\t// in\n    tag_68:\n        /* \"#utility.yul\":1852:1877   */\n      swap3\n      pop\n        /* \"#utility.yul\":1912:1913   */\n      dup3\n        /* \"#utility.yul\":1909:1910   */\n      dup3\n        /* \"#utility.yul\":1905:1914   */\n      mul\n        /* \"#utility.yul\":1934:1964   */\n      tag_69\n        /* \"#utility.yul\":1952:1963   */\n      dup2\n        /* \"#utility.yul\":1934:1964   */\n      tag_36\n      jump\t// in\n    tag_69:\n        /* \"#utility.yul\":1923:1964   */\n      swap2\n      pop\n        /* \"#utility.yul\":2113:2114   */\n      dup3\n        /* \"#utility.yul\":2104:2111   */\n      dup3\n        /* \"#utility.yul\":2100:2115   */\n      div\n        /* \"#utility.yul\":2097:2098   */\n      dup5\n        /* \"#utility.yul\":2094:2116   */\n      eq\n        /* \"#utility.yul\":2074:2075   */\n      dup4\n        /* \"#utility.yul\":2067:2076   */\n      iszero\n        /* \"#utility.yul\":2047:2130   */\n      or\n        /* \"#utility.yul\":2024:2163   */\n      tag_70\n      jumpi\n        /* \"#utility.yul\":2143:2161   */\n      tag_71\n      tag_40\n      jump\t// in\n    tag_71:\n        /* \"#utility.yul\":2024:2163   */\n    tag_70:\n        /* \"#utility.yul\":1808:2170   */\n      pop\n        /* \"#utility.yul\":1760:2170   */\n      swap3\n      swap2\n      pop\n      pop\n      jump\t// out\n        /* \"#utility.yul\":2176:2356   */\n    tag_41:\n        /* \"#utility.yul\":2224:2301   */\n      0x4e487b7100000000000000000000000000000000000000000000000000000000\n        /* \"#utility.yul\":2221:2222   */\n      0x00\n        /* \"#utility.yul\":2214:2302   */\n      mstore\n        /* \"#utility.yul\":2321:2325   */\n      0x12\n        /* \"#utility.yul\":2318:2319   */\n      0x04\n        /* \"#utility.yul\":2311:2326   */\n      mstore\n        /* \"#utility.yul\":2345:2349   */\n      0x24\n        /* \"#utility.yul\":2342:2343   */\n      0x00\n        /* \"#utility.yul\":2335:2350   */\n      revert\n        /* \"#utility.yul\":2362:2547   */\n    tag_30:\n        /* \"#utility.yul\":2402:2403   */\n      0x00\n        /* \"#utility.yul\":2419:2439   */\n      tag_74\n        /* \"#utility.yul\":2437:2438   */\n      dup3\n        /* \"#utility.yul\":2419:2439   */\n      tag_36\n      jump\t// in\n    tag_74:\n        /* \"#utility.yul\":2414:2439   */\n      swap2\n      pop\n        /* \"#utility.yul\":2453:2473   */\n      tag_75\n        /* \"#utility.yul\":2471:2472   */\n      dup4\n        /* \"#utility.yul\":2453:2473   */\n      tag_36\n      jump\t// in\n    tag_75:\n        /* \"#utility.yul\":2448:2473   */\n      swap3\n      pop\n        /* \"#utility.yul\":2492:2493   */\n      dup3\n        /* \"#utility.yul\":2482:2517   */\n      tag_76\n      jumpi\n        /* \"#utility.yul\":2497:2515   */\n      tag_77\n      tag_41\n      jump\t// in\n    tag_77:\n        /* \"#utility.yul\":2482:2517   */\n    tag_76:\n        /* \"#utility.yul\":2539:2540   */\n      dup3\n        /* \"#utility.yul\":2536:2537   */\n      dup3\n        /* \"#utility.yul\":2532:2541   */\n      div\n        /* \"#utility.yul\":2527:2541   */\n      swap1\n      pop\n        /* \"#utility.yul\":2362:2547   */\n      swap3\n      swap2\n      pop\n      pop\n      jump\t// out\n\n    auxdata: 0xa26469706673582212206ffecc04af2480f493c708a5fbb3da9875ea70b9055cd87bc333e072af26a1be64736f6c634300081a0033\n}\n",
				"bytecode": {
					"linkReferences": {},
					"object": "6080604052348015600e575f80fd5b506102f98061001c5f395ff3fe608060405234801561000f575f80fd5b506004361061004a575f3560e01c80633290f5151461004e578063b416e9101461006a578063b69ef8a81461009a578063b6b55f25146100b8575b5f80fd5b61006860048036038101906100639190610172565b6100d4565b005b610084600480360381019061007f9190610172565b6100fb565b60405161009191906101ac565b60405180910390f35b6100a261011c565b6040516100af91906101ac565b60405180910390f35b6100d260048036038101906100cd9190610172565b610121565b005b5f6100de826100fb565b9050805f808282546100f091906101f2565b925050819055505050565b5f6064825f5461010b9190610225565b6101159190610293565b9050919050565b5f5481565b805f8082825461013191906101f2565b9250508190555050565b5f80fd5b5f819050919050565b6101518161013f565b811461015b575f80fd5b50565b5f8135905061016c81610148565b92915050565b5f602082840312156101875761018661013b565b5b5f6101948482850161015e565b91505092915050565b6101a68161013f565b82525050565b5f6020820190506101bf5f83018461019d565b92915050565b7f4e487b71000000000000000000000000000000000000000000000000000000005f52601160045260245ffd5b5f6101fc8261013f565b91506102078361013f565b925082820190508082111561021f5761021e6101c5565b5b92915050565b5f61022f8261013f565b915061023a8361013f565b92508282026102488161013f565b9150828204841483151761025f5761025e6101c5565b5b5092915050565b7f4e487b71000000000000000000000000000000000000000000000000000000005f52601260045260245ffd5b5f61029d8261013f565b91506102a88361013f565b9250826102b8576102b7610266565b5b82820490509291505056fea26469706673582212206ffecc04af2480f493c708a5fbb3da9875ea70b9055cd87bc333e072af26a1be64736f6c634300081a0033",
					"opcodes": "PUSH1 0x80 PUSH1 0x40 MSTORE CALLVALUE DUP1 ISZERO PUSH1 0xE JUMPI PUSH0 DUP1 REVERT JUMPDEST POP PUSH2 0x2F9 DUP1 PUSH2 0x1C PUSH0 CODECOPY PUSH0 RETURN INVALID PUSH1 0x80 PUSH1 0x40 MSTORE CALLVALUE DUP1 ISZERO PUSH2 0xF JUMPI PUSH0 DUP1 REVERT JUMPDEST POP PUSH1 0x4 CALLDATASIZE LT PUSH2 0x4A JUMPI PUSH0 CALLDATALOAD PUSH1 0xE0 SHR DUP1 PUSH4 0x3290F515 EQ PUSH2 0x4E JUMPI DUP1 PUSH4 0xB416E910 EQ PUSH2 0x6A JUMPI DUP1 PUSH4 0xB69EF8A8 EQ PUSH2 0x9A JUMPI DUP1 PUSH4 0xB6B55F25 EQ PUSH2 0xB8 JUMPI JUMPDEST PUSH0 DUP1 REVERT JUMPDEST PUSH2 0x68 PUSH1 0x4 DUP1 CALLDATASIZE SUB DUP2 ADD SWAP1 PUSH2 0x63 SWAP2 SWAP1 PUSH2 0x172 JUMP JUMPDEST PUSH2 0xD4 JUMP JUMPDEST STOP JUMPDEST PUSH2 0x84 PUSH1 0x4 DUP1 CALLDATASIZE SUB DUP2 ADD SWAP1 PUSH2 0x7F SWAP2 SWAP1 PUSH2 0x172 JUMP JUMPDEST PUSH2 0xFB JUMP JUMPDEST PUSH1 0x40 MLOAD PUSH2 0x91 SWAP2 SWAP1 PUSH2 0x1AC JUMP JUMPDEST PUSH1 0x40 MLOAD DUP1 SWAP2 SUB SWAP1 RETURN JUMPDEST PUSH2 0xA2 PUSH2 0x11C JUMP JUMPDEST PUSH1 0x40 MLOAD PUSH2 0xAF SWAP2 SWAP1 PUSH2 0x1AC JUMP JUMPDEST PUSH1 0x40 MLOAD DUP1 SWAP2 SUB SWAP1 RETURN JUMPDEST PUSH2 0xD2 PUSH1 0x4 DUP1 CALLDATASIZE SUB DUP2 ADD SWAP1 PUSH2 0xCD SWAP2 SWAP1 PUSH2 0x172 JUMP JUMPDEST PUSH2 0x121 JUMP JUMPDEST STOP JUMPDEST PUSH0 PUSH2 0xDE DUP3 PUSH2 0xFB JUMP JUMPDEST SWAP1 POP DUP1 PUSH0 DUP1 DUP3 DUP3 SLOAD PUSH2 0xF0 SWAP2 SWAP1 PUSH2 0x1F2 JUMP JUMPDEST SWAP3 POP POP DUP2 SWAP1 SSTORE POP POP POP JUMP JUMPDEST PUSH0 PUSH1 0x64 DUP3 PUSH0 SLOAD PUSH2 0x10B SWAP2 SWAP1 PUSH2 0x225 JUMP JUMPDEST PUSH2 0x115 SWAP2 SWAP1 PUSH2 0x293 JUMP JUMPDEST SWAP1 POP SWAP2 SWAP1 POP JUMP JUMPDEST PUSH0 SLOAD DUP2 JUMP JUMPDEST DUP1 PUSH0 DUP1 DUP3 DUP3 SLOAD PUSH2 0x131 SWAP2 SWAP1 PUSH2 0x1F2 JUMP JUMPDEST SWAP3 POP POP DUP2 SWAP1 SSTORE POP POP JUMP JUMPDEST PUSH0 DUP1 REVERT JUMPDEST PUSH0 DUP2 SWAP1 POP SWAP2 SWAP1 POP JUMP JUMPDEST PUSH2 0x151 DUP2 PUSH2 0x13F JUMP JUMPDEST DUP2 EQ PUSH2 0x15B JUMPI PUSH0 DUP1 REVERT JUMPDEST POP JUMP JUMPDEST PUSH0 DUP2 CALLDATALOAD SWAP1 POP PUSH2 0x16C DUP2 PUSH2 0x148 JUMP JUMPDEST SWAP3 SWAP2 POP POP JUMP JUMPDEST PUSH0 PUSH1 0x20 DUP3 DUP5 SUB SLT ISZERO PUSH2 0x187 JUMPI PUSH2 0x186 PUSH2 0x13B JUMP JUMPDEST JUMPDEST PUSH0 PUSH2 0x194 DUP5 DUP3 DUP6 ADD PUSH2 0x15E JUMP JUMPDEST SWAP2 POP POP SWAP3 SWAP2 POP POP JUMP JUMPDEST PUSH2 0x1A6 DUP2 PUSH2 0x13F JUMP JUMPDEST DUP3 MSTORE POP POP JUMP JUMPDEST PUSH0 PUSH1 0x20 DUP3 ADD SWAP1 POP PUSH2 0x1BF PUSH0 DUP4 ADD DUP5 PUSH2 0x19D JUMP JUMPDEST SWAP3 SWAP2 POP POP JUMP JUMPDEST PUSH32 0x4E487B7100000000000000000000000000000000000000000000000000000000 PUSH0 MSTORE PUSH1 0x11 PUSH1 0x4 MSTORE PUSH1 0x24 PUSH0 REVERT JUMPDEST PUSH0 PUSH2 0x1FC DUP3 PUSH2 0x13F JUMP JUMPDEST SWAP2 POP PUSH2 0x207 DUP4 PUSH2 0x13F JUMP JUMPDEST SWAP3 POP DUP3 DUP3 ADD SWAP1 POP DUP1 DUP3 GT ISZERO PUSH2 0x21F JUMPI PUSH2 0x21E PUSH2 0x1C5 JUMP JUMPDEST JUMPDEST SWAP3 SWAP2 POP POP JUMP JUMPDEST PUSH0 PUSH2 0x22F DUP3 PUSH2 0x13F JUMP JUMPDEST SWAP2 POP PUSH2 0x23A DUP4 PUSH2 0x13F JUMP JUMPDEST SWAP3 POP DUP3 DUP3 MUL PUSH2 0x248 DUP2 PUSH2 0x13F JUMP JUMPDEST SWAP2 POP DUP3 DUP3 DIV DUP5 EQ DUP4 ISZERO OR PUSH2 0x25F JUMPI PUSH2 0x25E PUSH2 0x1C5 JUMP JUMPDEST JUMPDEST POP SWAP3 SWAP2 POP POP JUMP JUMPDEST PUSH32 0x4E487B7100000000000000000000000000000000000000000000000000000000 PUSH0 MSTORE PUSH1 0x12 PUSH1 0x4 MSTORE PUSH1 0x24 PUSH0 REVERT JUMPDEST PUSH0 PUSH2 0x29D DUP3 PUSH2 0x13F JUMP JUMPDEST SWAP2 POP PUSH2 0x2A8 DUP4 PUSH2 0x13F JUMP JUMPDEST SWAP3 POP DUP3 PUSH2 0x2B8 JUMPI PUSH2 0x2B7 PUSH2 0x266 JUMP JUMPDEST JUMPDEST DUP3 DUP3 DIV SWAP1 POP SWAP3 SWAP2 POP POP JUMP INVALID LOG2 PUSH5 0x6970667358 0x22 SLT KECCAK256 PUSH16 0xFECC04AF2480F493C708A5FBB3DA9875 0xEA PUSH17 0xB9055CD87BC333E072AF26A1BE64736F6C PUSH4 0x4300081A STOP CALLER "
				},
				"gasEstimates": {
					"creation": {
						"codeDepositCost": "152200",
						"executionCost": "194",
						"totalCost": "152394"
					},
					"external": {
						"CalcInterest(uint256)": "infinite",
						"addInterest(uint256)": "infinite",
						"balance()": "2446",
						"deposit(uint256)": "infinite"
					}
				},
				"methodIdentifiers": {
					"CalcInterest(uint256)": "b416e910",
					"addInterest(uint256)": "3290f515",
					"balance()": "b69ef8a8",
					"deposit(uint256)": "b6b55f25"
				}
			},
			"storageLayout": {
				"storage": [
					{
						"astId": 3,
						"contract": "contracts/bank2.sol:Bank2",
						"label": "balance",
						"offset": 0,
						"slot": "0",
						"type": "t_uint256"
					}
				],
				"types": {
					"t_uint256": {
						"encoding": "inplace",
						"label": "uint256",
						"numberOfBytes": "32"
					}
				}
			},
			"userdoc": {
				"kind": "user",
				"methods": {},
				"version": 1
			}
		}
	}
}