{
	"contracts/enum1.sol": {
		"OrderStatusTracker": {
			"abi": [
				{
					"inputs": [],
					"name": "currentStage",
					"outputs": [
						{
							"internalType": "enum OrderStatusTracker.OrderStage",
							"name": "",
							"type": "uint8"
						}
					],
					"stateMutability": "view",
					"type": "function"
				},
				{
					"inputs": [],
					"name": "getOrderStage",
					"outputs": [
						{
							"internalType": "string",
							"name": "",
							"type": "string"
						}
					],
					"stateMutability": "view",
					"type": "function"
				},
				{
					"inputs": [
						{
							"internalType": "enum OrderStatusTracker.OrderStage",
							"name": "_stage",
							"type": "uint8"
						}
					],
					"name": "updateOrderStage",
					"outputs": [],
					"stateMutability": "nonpayable",
					"type": "function"
				}
			],
			"devdoc": {
				"kind": "dev",
				"methods": {},
				"version": 1
			},
			"evm": {
				"assembly": "    /* \"contracts/enum1.sol\":60:801  contract OrderStatusTracker {... */\n  mstore(0x40, 0x80)\n  callvalue\n  dup1\n  iszero\n  tag_1\n  jumpi\n  0x00\n  dup1\n  revert\ntag_1:\n  pop\n  dataSize(sub_0)\n  dup1\n  dataOffset(sub_0)\n  0x00\n  codecopy\n  0x00\n  return\nstop\n\nsub_0: assembly {\n        /* \"contracts/enum1.sol\":60:801  contract OrderStatusTracker {... */\n      mstore(0x40, 0x80)\n      callvalue\n      dup1\n      iszero\n      tag_1\n      jumpi\n      0x00\n      dup1\n      revert\n    tag_1:\n      pop\n      jumpi(tag_2, lt(calldatasize, 0x04))\n      shr(0xe0, calldataload(0x00))\n      dup1\n      0x5bf5d54c\n      eq\n      tag_3\n      jumpi\n      dup1\n      0x73d476ad\n      eq\n      tag_4\n      jumpi\n      dup1\n      0xf1222782\n      eq\n      tag_5\n      jumpi\n    tag_2:\n      0x00\n      dup1\n      revert\n        /* \"contracts/enum1.sol\":261:291  OrderStage public currentStage */\n    tag_3:\n      tag_6\n      tag_7\n      jump\t// in\n    tag_6:\n      mload(0x40)\n      tag_8\n      swap2\n      swap1\n      tag_9\n      jump\t// in\n    tag_8:\n      mload(0x40)\n      dup1\n      swap2\n      sub\n      swap1\n      return\n        /* \"contracts/enum1.sol\":492:798  function getOrderStage() public view returns (string memory) {... */\n    tag_4:\n      tag_10\n      tag_11\n      jump\t// in\n    tag_10:\n      mload(0x40)\n      tag_12\n      swap2\n      swap1\n      tag_13\n      jump\t// in\n    tag_12:\n      mload(0x40)\n      dup1\n      swap2\n      sub\n      swap1\n      return\n        /* \"contracts/enum1.sol\":339:431  function updateOrderStage(OrderStage _stage) public {... */\n    tag_5:\n      tag_14\n      0x04\n      dup1\n      calldatasize\n      sub\n      dup2\n      add\n      swap1\n      tag_15\n      swap2\n      swap1\n      tag_16\n      jump\t// in\n    tag_15:\n      tag_17\n      jump\t// in\n    tag_14:\n      stop\n        /* \"contracts/enum1.sol\":261:291  OrderStage public currentStage */\n    tag_7:\n      0x00\n      dup1\n      sload\n      swap1\n      0x0100\n      exp\n      swap1\n      div\n      0xff\n      and\n      dup2\n      jump\t// out\n        /* \"contracts/enum1.sol\":492:798  function getOrderStage() public view returns (string memory) {... */\n    tag_11:\n        /* \"contracts/enum1.sol\":538:551  string memory */\n      0x60\n        /* \"contracts/enum1.sol\":584:602  OrderStage.Created */\n      0x00\n        /* \"contracts/enum1.sol\":568:602  currentStage == OrderStage.Created */\n      0x03\n      dup2\n      gt\n      iszero\n      tag_19\n      jumpi\n      tag_20\n      tag_21\n      jump\t// in\n    tag_20:\n    tag_19:\n        /* \"contracts/enum1.sol\":568:580  currentStage */\n      0x00\n      dup1\n      sload\n      swap1\n      0x0100\n      exp\n      swap1\n      div\n      0xff\n      and\n        /* \"contracts/enum1.sol\":568:602  currentStage == OrderStage.Created */\n      0x03\n      dup2\n      gt\n      iszero\n      tag_22\n      jumpi\n      tag_23\n      tag_21\n      jump\t// in\n    tag_23:\n    tag_22:\n      sub\n        /* \"contracts/enum1.sol\":564:620  if (currentStage == OrderStage.Created) return \"Created\" */\n      tag_24\n      jumpi\n        /* \"contracts/enum1.sol\":604:620  return \"Created\" */\n      mload(0x40)\n      dup1\n      0x40\n      add\n      0x40\n      mstore\n      dup1\n      0x07\n      dup2\n      mstore\n      0x20\n      add\n      0x4372656174656400000000000000000000000000000000000000000000000000\n      dup2\n      mstore\n      pop\n      swap1\n      pop\n      jump(tag_18)\n        /* \"contracts/enum1.sol\":564:620  if (currentStage == OrderStage.Created) return \"Created\" */\n    tag_24:\n        /* \"contracts/enum1.sol\":651:672  OrderStage.Dispatched */\n      0x01\n        /* \"contracts/enum1.sol\":635:672  currentStage == OrderStage.Dispatched */\n      0x03\n      dup2\n      gt\n      iszero\n      tag_25\n      jumpi\n      tag_26\n      tag_21\n      jump\t// in\n    tag_26:\n    tag_25:\n        /* \"contracts/enum1.sol\":635:647  currentStage */\n      0x00\n      dup1\n      sload\n      swap1\n      0x0100\n      exp\n      swap1\n      div\n      0xff\n      and\n        /* \"contracts/enum1.sol\":635:672  currentStage == OrderStage.Dispatched */\n      0x03\n      dup2\n      gt\n      iszero\n      tag_27\n      jumpi\n      tag_28\n      tag_21\n      jump\t// in\n    tag_28:\n    tag_27:\n      sub\n        /* \"contracts/enum1.sol\":631:693  if (currentStage == OrderStage.Dispatched) return \"Dispatched\" */\n      tag_29\n      jumpi\n        /* \"contracts/enum1.sol\":674:693  return \"Dispatched\" */\n      mload(0x40)\n      dup1\n      0x40\n      add\n      0x40\n      mstore\n      dup1\n      0x0a\n      dup2\n      mstore\n      0x20\n      add\n      0x4469737061746368656400000000000000000000000000000000000000000000\n      dup2\n      mstore\n      pop\n      swap1\n      pop\n      jump(tag_18)\n        /* \"contracts/enum1.sol\":631:693  if (currentStage == OrderStage.Dispatched) return \"Dispatched\" */\n    tag_29:\n        /* \"contracts/enum1.sol\":724:743  OrderStage.Received */\n      0x02\n        /* \"contracts/enum1.sol\":708:743  currentStage == OrderStage.Received */\n      0x03\n      dup2\n      gt\n      iszero\n      tag_30\n      jumpi\n      tag_31\n      tag_21\n      jump\t// in\n    tag_31:\n    tag_30:\n        /* \"contracts/enum1.sol\":708:720  currentStage */\n      0x00\n      dup1\n      sload\n      swap1\n      0x0100\n      exp\n      swap1\n      div\n      0xff\n      and\n        /* \"contracts/enum1.sol\":708:743  currentStage == OrderStage.Received */\n      0x03\n      dup2\n      gt\n      iszero\n      tag_32\n      jumpi\n      tag_33\n      tag_21\n      jump\t// in\n    tag_33:\n    tag_32:\n      sub\n        /* \"contracts/enum1.sol\":704:762  if (currentStage == OrderStage.Received) return \"Received\" */\n      tag_34\n      jumpi\n        /* \"contracts/enum1.sol\":745:762  return \"Received\" */\n      mload(0x40)\n      dup1\n      0x40\n      add\n      0x40\n      mstore\n      dup1\n      0x08\n      dup2\n      mstore\n      0x20\n      add\n      0x5265636569766564000000000000000000000000000000000000000000000000\n      dup2\n      mstore\n      pop\n      swap1\n      pop\n      jump(tag_18)\n        /* \"contracts/enum1.sol\":704:762  if (currentStage == OrderStage.Received) return \"Received\" */\n    tag_34:\n        /* \"contracts/enum1.sol\":773:790  return \"Rejected\" */\n      mload(0x40)\n      dup1\n      0x40\n      add\n      0x40\n      mstore\n      dup1\n      0x08\n      dup2\n      mstore\n      0x20\n      add\n      0x52656a6563746564000000000000000000000000000000000000000000000000\n      dup2\n      mstore\n      pop\n      swap1\n      pop\n        /* \"contracts/enum1.sol\":492:798  function getOrderStage() public view returns (string memory) {... */\n    tag_18:\n      swap1\n      jump\t// out\n        /* \"contracts/enum1.sol\":339:431  function updateOrderStage(OrderStage _stage) public {... */\n    tag_17:\n        /* \"contracts/enum1.sol\":417:423  _stage */\n      dup1\n        /* \"contracts/enum1.sol\":402:414  currentStage */\n      0x00\n      dup1\n        /* \"contracts/enum1.sol\":402:423  currentStage = _stage */\n      0x0100\n      exp\n      dup2\n      sload\n      dup2\n      0xff\n      mul\n      not\n      and\n      swap1\n      dup4\n      0x03\n      dup2\n      gt\n      iszero\n      tag_36\n      jumpi\n      tag_37\n      tag_21\n      jump\t// in\n    tag_37:\n    tag_36:\n      mul\n      or\n      swap1\n      sstore\n      pop\n        /* \"contracts/enum1.sol\":339:431  function updateOrderStage(OrderStage _stage) public {... */\n      pop\n      jump\t// out\n        /* \"#utility.yul\":7:187   */\n    tag_21:\n        /* \"#utility.yul\":55:132   */\n      0x4e487b7100000000000000000000000000000000000000000000000000000000\n        /* \"#utility.yul\":52:53   */\n      0x00\n        /* \"#utility.yul\":45:133   */\n      mstore\n        /* \"#utility.yul\":152:156   */\n      0x21\n        /* \"#utility.yul\":149:150   */\n      0x04\n        /* \"#utility.yul\":142:157   */\n      mstore\n        /* \"#utility.yul\":176:180   */\n      0x24\n        /* \"#utility.yul\":173:174   */\n      0x00\n        /* \"#utility.yul\":166:181   */\n      revert\n        /* \"#utility.yul\":193:310   */\n    tag_38:\n        /* \"#utility.yul\":278:279   */\n      0x04\n        /* \"#utility.yul\":271:276   */\n      dup2\n        /* \"#utility.yul\":268:280   */\n      lt\n        /* \"#utility.yul\":258:304   */\n      tag_55\n      jumpi\n        /* \"#utility.yul\":284:302   */\n      tag_56\n      tag_21\n      jump\t// in\n    tag_56:\n        /* \"#utility.yul\":258:304   */\n    tag_55:\n        /* \"#utility.yul\":193:310   */\n      pop\n      jump\t// out\n        /* \"#utility.yul\":316:451   */\n    tag_39:\n        /* \"#utility.yul\":365:372   */\n      0x00\n        /* \"#utility.yul\":394:399   */\n      dup2\n        /* \"#utility.yul\":383:399   */\n      swap1\n      pop\n        /* \"#utility.yul\":400:445   */\n      tag_58\n        /* \"#utility.yul\":439:444   */\n      dup3\n        /* \"#utility.yul\":400:445   */\n      tag_38\n      jump\t// in\n    tag_58:\n        /* \"#utility.yul\":316:451   */\n      swap2\n      swap1\n      pop\n      jump\t// out\n        /* \"#utility.yul\":457:592   */\n    tag_40:\n        /* \"#utility.yul\":517:526   */\n      0x00\n        /* \"#utility.yul\":550:586   */\n      tag_60\n        /* \"#utility.yul\":580:585   */\n      dup3\n        /* \"#utility.yul\":550:586   */\n      tag_39\n      jump\t// in\n    tag_60:\n        /* \"#utility.yul\":537:586   */\n      swap1\n      pop\n        /* \"#utility.yul\":457:592   */\n      swap2\n      swap1\n      pop\n      jump\t// out\n        /* \"#utility.yul\":598:749   */\n    tag_41:\n        /* \"#utility.yul\":695:742   */\n      tag_62\n        /* \"#utility.yul\":736:741   */\n      dup2\n        /* \"#utility.yul\":695:742   */\n      tag_40\n      jump\t// in\n    tag_62:\n        /* \"#utility.yul\":690:693   */\n      dup3\n        /* \"#utility.yul\":683:743   */\n      mstore\n        /* \"#utility.yul\":598:749   */\n      pop\n      pop\n      jump\t// out\n        /* \"#utility.yul\":755:997   */\n    tag_9:\n        /* \"#utility.yul\":858:862   */\n      0x00\n        /* \"#utility.yul\":896:898   */\n      0x20\n        /* \"#utility.yul\":885:894   */\n      dup3\n        /* \"#utility.yul\":881:899   */\n      add\n        /* \"#utility.yul\":873:899   */\n      swap1\n      pop\n        /* \"#utility.yul\":909:990   */\n      tag_64\n        /* \"#utility.yul\":987:988   */\n      0x00\n        /* \"#utility.yul\":976:985   */\n      dup4\n        /* \"#utility.yul\":972:989   */\n      add\n        /* \"#utility.yul\":963:969   */\n      dup5\n        /* \"#utility.yul\":909:990   */\n      tag_41\n      jump\t// in\n    tag_64:\n        /* \"#utility.yul\":755:997   */\n      swap3\n      swap2\n      pop\n      pop\n      jump\t// out\n        /* \"#utility.yul\":1003:1102   */\n    tag_42:\n        /* \"#utility.yul\":1055:1061   */\n      0x00\n        /* \"#utility.yul\":1089:1094   */\n      dup2\n        /* \"#utility.yul\":1083:1095   */\n      mload\n        /* \"#utility.yul\":1073:1095   */\n      swap1\n      pop\n        /* \"#utility.yul\":1003:1102   */\n      swap2\n      swap1\n      pop\n      jump\t// out\n        /* \"#utility.yul\":1108:1277   */\n    tag_43:\n        /* \"#utility.yul\":1192:1203   */\n      0x00\n        /* \"#utility.yul\":1226:1232   */\n      dup3\n        /* \"#utility.yul\":1221:1224   */\n      dup3\n        /* \"#utility.yul\":1214:1233   */\n      mstore\n        /* \"#utility.yul\":1266:1270   */\n      0x20\n        /* \"#utility.yul\":1261:1264   */\n      dup3\n        /* \"#utility.yul\":1257:1271   */\n      add\n        /* \"#utility.yul\":1242:1271   */\n      swap1\n      pop\n        /* \"#utility.yul\":1108:1277   */\n      swap3\n      swap2\n      pop\n      pop\n      jump\t// out\n        /* \"#utility.yul\":1283:1422   */\n    tag_44:\n        /* \"#utility.yul\":1372:1378   */\n      dup3\n        /* \"#utility.yul\":1367:1370   */\n      dup2\n        /* \"#utility.yul\":1362:1365   */\n      dup4\n        /* \"#utility.yul\":1356:1379   */\n      mcopy\n        /* \"#utility.yul\":1413:1414   */\n      0x00\n        /* \"#utility.yul\":1404:1410   */\n      dup4\n        /* \"#utility.yul\":1399:1402   */\n      dup4\n        /* \"#utility.yul\":1395:1411   */\n      add\n        /* \"#utility.yul\":1388:1415   */\n      mstore\n        /* \"#utility.yul\":1283:1422   */\n      pop\n      pop\n      pop\n      jump\t// out\n        /* \"#utility.yul\":1428:1530   */\n    tag_45:\n        /* \"#utility.yul\":1469:1475   */\n      0x00\n        /* \"#utility.yul\":1520:1522   */\n      0x1f\n        /* \"#utility.yul\":1516:1523   */\n      not\n        /* \"#utility.yul\":1511:1513   */\n      0x1f\n        /* \"#utility.yul\":1504:1509   */\n      dup4\n        /* \"#utility.yul\":1500:1514   */\n      add\n        /* \"#utility.yul\":1496:1524   */\n      and\n        /* \"#utility.yul\":1486:1524   */\n      swap1\n      pop\n        /* \"#utility.yul\":1428:1530   */\n      swap2\n      swap1\n      pop\n      jump\t// out\n        /* \"#utility.yul\":1536:1913   */\n    tag_46:\n        /* \"#utility.yul\":1624:1627   */\n      0x00\n        /* \"#utility.yul\":1652:1691   */\n      tag_70\n        /* \"#utility.yul\":1685:1690   */\n      dup3\n        /* \"#utility.yul\":1652:1691   */\n      tag_42\n      jump\t// in\n    tag_70:\n        /* \"#utility.yul\":1707:1778   */\n      tag_71\n        /* \"#utility.yul\":1771:1777   */\n      dup2\n        /* \"#utility.yul\":1766:1769   */\n      dup6\n        /* \"#utility.yul\":1707:1778   */\n      tag_43\n      jump\t// in\n    tag_71:\n        /* \"#utility.yul\":1700:1778   */\n      swap4\n      pop\n        /* \"#utility.yul\":1787:1852   */\n      tag_72\n        /* \"#utility.yul\":1845:1851   */\n      dup2\n        /* \"#utility.yul\":1840:1843   */\n      dup6\n        /* \"#utility.yul\":1833:1837   */\n      0x20\n        /* \"#utility.yul\":1826:1831   */\n      dup7\n        /* \"#utility.yul\":1822:1838   */\n      add\n        /* \"#utility.yul\":1787:1852   */\n      tag_44\n      jump\t// in\n    tag_72:\n        /* \"#utility.yul\":1877:1906   */\n      tag_73\n        /* \"#utility.yul\":1899:1905   */\n      dup2\n        /* \"#utility.yul\":1877:1906   */\n      tag_45\n      jump\t// in\n    tag_73:\n        /* \"#utility.yul\":1872:1875   */\n      dup5\n        /* \"#utility.yul\":1868:1907   */\n      add\n        /* \"#utility.yul\":1861:1907   */\n      swap2\n      pop\n        /* \"#utility.yul\":1628:1913   */\n      pop\n        /* \"#utility.yul\":1536:1913   */\n      swap3\n      swap2\n      pop\n      pop\n      jump\t// out\n        /* \"#utility.yul\":1919:2232   */\n    tag_13:\n        /* \"#utility.yul\":2032:2036   */\n      0x00\n        /* \"#utility.yul\":2070:2072   */\n      0x20\n        /* \"#utility.yul\":2059:2068   */\n      dup3\n        /* \"#utility.yul\":2055:2073   */\n      add\n        /* \"#utility.yul\":2047:2073   */\n      swap1\n      pop\n        /* \"#utility.yul\":2119:2128   */\n      dup2\n        /* \"#utility.yul\":2113:2117   */\n      dup2\n        /* \"#utility.yul\":2109:2129   */\n      sub\n        /* \"#utility.yul\":2105:2106   */\n      0x00\n        /* \"#utility.yul\":2094:2103   */\n      dup4\n        /* \"#utility.yul\":2090:2107   */\n      add\n        /* \"#utility.yul\":2083:2130   */\n      mstore\n        /* \"#utility.yul\":2147:2225   */\n      tag_75\n        /* \"#utility.yul\":2220:2224   */\n      dup2\n        /* \"#utility.yul\":2211:2217   */\n      dup5\n        /* \"#utility.yul\":2147:2225   */\n      tag_46\n      jump\t// in\n    tag_75:\n        /* \"#utility.yul\":2139:2225   */\n      swap1\n      pop\n        /* \"#utility.yul\":1919:2232   */\n      swap3\n      swap2\n      pop\n      pop\n      jump\t// out\n        /* \"#utility.yul\":2319:2436   */\n    tag_48:\n        /* \"#utility.yul\":2428:2429   */\n      0x00\n        /* \"#utility.yul\":2425:2426   */\n      dup1\n        /* \"#utility.yul\":2418:2430   */\n      revert\n        /* \"#utility.yul\":2565:2676   */\n    tag_50:\n        /* \"#utility.yul\":2650:2651   */\n      0x04\n        /* \"#utility.yul\":2643:2648   */\n      dup2\n        /* \"#utility.yul\":2640:2652   */\n      lt\n        /* \"#utility.yul\":2630:2670   */\n      tag_80\n      jumpi\n        /* \"#utility.yul\":2666:2667   */\n      0x00\n        /* \"#utility.yul\":2663:2664   */\n      dup1\n        /* \"#utility.yul\":2656:2668   */\n      revert\n        /* \"#utility.yul\":2630:2670   */\n    tag_80:\n        /* \"#utility.yul\":2565:2676   */\n      pop\n      jump\t// out\n        /* \"#utility.yul\":2682:2845   */\n    tag_51:\n        /* \"#utility.yul\":2740:2745   */\n      0x00\n        /* \"#utility.yul\":2778:2784   */\n      dup2\n        /* \"#utility.yul\":2765:2785   */\n      calldataload\n        /* \"#utility.yul\":2756:2785   */\n      swap1\n      pop\n        /* \"#utility.yul\":2794:2839   */\n      tag_82\n        /* \"#utility.yul\":2833:2838   */\n      dup2\n        /* \"#utility.yul\":2794:2839   */\n      tag_50\n      jump\t// in\n    tag_82:\n        /* \"#utility.yul\":2682:2845   */\n      swap3\n      swap2\n      pop\n      pop\n      jump\t// out\n        /* \"#utility.yul\":2851:3204   */\n    tag_16:\n        /* \"#utility.yul\":2922:2928   */\n      0x00\n        /* \"#utility.yul\":2971:2973   */\n      0x20\n        /* \"#utility.yul\":2959:2968   */\n      dup3\n        /* \"#utility.yul\":2950:2957   */\n      dup5\n        /* \"#utility.yul\":2946:2969   */\n      sub\n        /* \"#utility.yul\":2942:2974   */\n      slt\n        /* \"#utility.yul\":2939:3058   */\n      iszero\n      tag_84\n      jumpi\n        /* \"#utility.yul\":2977:3056   */\n      tag_85\n      tag_48\n      jump\t// in\n    tag_85:\n        /* \"#utility.yul\":2939:3058   */\n    tag_84:\n        /* \"#utility.yul\":3097:3098   */\n      0x00\n        /* \"#utility.yul\":3122:3187   */\n      tag_86\n        /* \"#utility.yul\":3179:3186   */\n      dup5\n        /* \"#utility.yul\":3170:3176   */\n      dup3\n        /* \"#utility.yul\":3159:3168   */\n      dup6\n        /* \"#utility.yul\":3155:3177   */\n      add\n        /* \"#utility.yul\":3122:3187   */\n      tag_51\n      jump\t// in\n    tag_86:\n        /* \"#utility.yul\":3112:3187   */\n      swap2\n      pop\n        /* \"#utility.yul\":3068:3197   */\n      pop\n        /* \"#utility.yul\":2851:3204   */\n      swap3\n      swap2\n      pop\n      pop\n      jump\t// out\n\n    auxdata: 0xa2646970667358221220d6e0d56f0ca61469a7444ab2d119574561743452779e20c99e8bdd47df18d36d64736f6c634300081a0033\n}\n",
				"bytecode": {
					"linkReferences": {},
					"object": "6080604052348015600e575f80fd5b506104168061001c5f395ff3fe608060405234801561000f575f80fd5b506004361061003f575f3560e01c80635bf5d54c1461004357806373d476ad14610061578063f12227821461007f575b5f80fd5b61004b61009b565b60405161005891906102e5565b60405180910390f35b6100696100ab565b604051610076919061036e565b60405180910390f35b610099600480360381019061009491906103b5565b610247565b005b5f8054906101000a900460ff1681565b60605f60038111156100c0576100bf610272565b5b5f8054906101000a900460ff1660038111156100df576100de610272565b5b03610121576040518060400160405280600781526020017f43726561746564000000000000000000000000000000000000000000000000008152509050610244565b6001600381111561013557610134610272565b5b5f8054906101000a900460ff16600381111561015457610153610272565b5b03610196576040518060400160405280600a81526020017f44697370617463686564000000000000000000000000000000000000000000008152509050610244565b600260038111156101aa576101a9610272565b5b5f8054906101000a900460ff1660038111156101c9576101c8610272565b5b0361020b576040518060400160405280600881526020017f52656365697665640000000000000000000000000000000000000000000000008152509050610244565b6040518060400160405280600881526020017f52656a656374656400000000000000000000000000000000000000000000000081525090505b90565b805f806101000a81548160ff0219169083600381111561026a57610269610272565b5b021790555050565b7f4e487b71000000000000000000000000000000000000000000000000000000005f52602160045260245ffd5b600481106102b0576102af610272565b5b50565b5f8190506102c08261029f565b919050565b5f6102cf826102b3565b9050919050565b6102df816102c5565b82525050565b5f6020820190506102f85f8301846102d6565b92915050565b5f81519050919050565b5f82825260208201905092915050565b8281835e5f83830152505050565b5f601f19601f8301169050919050565b5f610340826102fe565b61034a8185610308565b935061035a818560208601610318565b61036381610326565b840191505092915050565b5f6020820190508181035f8301526103868184610336565b905092915050565b5f80fd5b6004811061039e575f80fd5b50565b5f813590506103af81610392565b92915050565b5f602082840312156103ca576103c961038e565b5b5f6103d7848285016103a1565b9150509291505056fea2646970667358221220d6e0d56f0ca61469a7444ab2d119574561743452779e20c99e8bdd47df18d36d64736f6c634300081a0033",
					"opcodes": "PUSH1 0x80 PUSH1 0x40 MSTORE CALLVALUE DUP1 ISZERO PUSH1 0xE JUMPI PUSH0 DUP1 REVERT JUMPDEST POP PUSH2 0x416 DUP1 PUSH2 0x1C PUSH0 CODECOPY PUSH0 RETURN INVALID PUSH1 0x80 PUSH1 0x40 MSTORE CALLVALUE DUP1 ISZERO PUSH2 0xF JUMPI PUSH0 DUP1 REVERT JUMPDEST POP PUSH1 0x4 CALLDATASIZE LT PUSH2 0x3F JUMPI PUSH0 CALLDATALOAD PUSH1 0xE0 SHR DUP1 PUSH4 0x5BF5D54C EQ PUSH2 0x43 JUMPI DUP1 PUSH4 0x73D476AD EQ PUSH2 0x61 JUMPI DUP1 PUSH4 0xF1222782 EQ PUSH2 0x7F JUMPI JUMPDEST PUSH0 DUP1 REVERT JUMPDEST PUSH2 0x4B PUSH2 0x9B JUMP JUMPDEST PUSH1 0x40 MLOAD PUSH2 0x58 SWAP2 SWAP1 PUSH2 0x2E5 JUMP JUMPDEST PUSH1 0x40 MLOAD DUP1 SWAP2 SUB SWAP1 RETURN JUMPDEST PUSH2 0x69 PUSH2 0xAB JUMP JUMPDEST PUSH1 0x40 MLOAD PUSH2 0x76 SWAP2 SWAP1 PUSH2 0x36E JUMP JUMPDEST PUSH1 0x40 MLOAD DUP1 SWAP2 SUB SWAP1 RETURN JUMPDEST PUSH2 0x99 PUSH1 0x4 DUP1 CALLDATASIZE SUB DUP2 ADD SWAP1 PUSH2 0x94 SWAP2 SWAP1 PUSH2 0x3B5 JUMP JUMPDEST PUSH2 0x247 JUMP JUMPDEST STOP JUMPDEST PUSH0 DUP1 SLOAD SWAP1 PUSH2 0x100 EXP SWAP1 DIV PUSH1 0xFF AND DUP2 JUMP JUMPDEST PUSH1 0x60 PUSH0 PUSH1 0x3 DUP2 GT ISZERO PUSH2 0xC0 JUMPI PUSH2 0xBF PUSH2 0x272 JUMP JUMPDEST JUMPDEST PUSH0 DUP1 SLOAD SWAP1 PUSH2 0x100 EXP SWAP1 DIV PUSH1 0xFF AND PUSH1 0x3 DUP2 GT ISZERO PUSH2 0xDF JUMPI PUSH2 0xDE PUSH2 0x272 JUMP JUMPDEST JUMPDEST SUB PUSH2 0x121 JUMPI PUSH1 0x40 MLOAD DUP1 PUSH1 0x40 ADD PUSH1 0x40 MSTORE DUP1 PUSH1 0x7 DUP2 MSTORE PUSH1 0x20 ADD PUSH32 0x4372656174656400000000000000000000000000000000000000000000000000 DUP2 MSTORE POP SWAP1 POP PUSH2 0x244 JUMP JUMPDEST PUSH1 0x1 PUSH1 0x3 DUP2 GT ISZERO PUSH2 0x135 JUMPI PUSH2 0x134 PUSH2 0x272 JUMP JUMPDEST JUMPDEST PUSH0 DUP1 SLOAD SWAP1 PUSH2 0x100 EXP SWAP1 DIV PUSH1 0xFF AND PUSH1 0x3 DUP2 GT ISZERO PUSH2 0x154 JUMPI PUSH2 0x153 PUSH2 0x272 JUMP JUMPDEST JUMPDEST SUB PUSH2 0x196 JUMPI PUSH1 0x40 MLOAD DUP1 PUSH1 0x40 ADD PUSH1 0x40 MSTORE DUP1 PUSH1 0xA DUP2 MSTORE PUSH1 0x20 ADD PUSH32 0x4469737061746368656400000000000000000000000000000000000000000000 DUP2 MSTORE POP SWAP1 POP PUSH2 0x244 JUMP JUMPDEST PUSH1 0x2 PUSH1 0x3 DUP2 GT ISZERO PUSH2 0x1AA JUMPI PUSH2 0x1A9 PUSH2 0x272 JUMP JUMPDEST JUMPDEST PUSH0 DUP1 SLOAD SWAP1 PUSH2 0x100 EXP SWAP1 DIV PUSH1 0xFF AND PUSH1 0x3 DUP2 GT ISZERO PUSH2 0x1C9 JUMPI PUSH2 0x1C8 PUSH2 0x272 JUMP JUMPDEST JUMPDEST SUB PUSH2 0x20B JUMPI PUSH1 0x40 MLOAD DUP1 PUSH1 0x40 ADD PUSH1 0x40 MSTORE DUP1 PUSH1 0x8 DUP2 MSTORE PUSH1 0x20 ADD PUSH32 0x5265636569766564000000000000000000000000000000000000000000000000 DUP2 MSTORE POP SWAP1 POP PUSH2 0x244 JUMP JUMPDEST PUSH1 0x40 MLOAD DUP1 PUSH1 0x40 ADD PUSH1 0x40 MSTORE DUP1 PUSH1 0x8 DUP2 MSTORE PUSH1 0x20 ADD PUSH32 0x52656A6563746564000000000000000000000000000000000000000000000000 DUP2 MSTORE POP SWAP1 POP JUMPDEST SWAP1 JUMP JUMPDEST DUP1 PUSH0 DUP1 PUSH2 0x100 EXP DUP2 SLOAD DUP2 PUSH1 0xFF MUL NOT AND SWAP1 DUP4 PUSH1 0x3 DUP2 GT ISZERO PUSH2 0x26A JUMPI PUSH2 0x269 PUSH2 0x272 JUMP JUMPDEST JUMPDEST MUL OR SWAP1 SSTORE POP POP JUMP JUMPDEST PUSH32 0x4E487B7100000000000000000000000000000000000000000000000000000000 PUSH0 MSTORE PUSH1 0x21 PUSH1 0x4 MSTORE PUSH1 0x24 PUSH0 REVERT JUMPDEST PUSH1 0x4 DUP2 LT PUSH2 0x2B0 JUMPI PUSH2 0x2AF PUSH2 0x272 JUMP JUMPDEST JUMPDEST POP JUMP JUMPDEST PUSH0 DUP2 SWAP1 POP PUSH2 0x2C0 DUP3 PUSH2 0x29F JUMP JUMPDEST SWAP2 SWAP1 POP JUMP JUMPDEST PUSH0 PUSH2 0x2CF DUP3 PUSH2 0x2B3 JUMP JUMPDEST SWAP1 POP SWAP2 SWAP1 POP JUMP JUMPDEST PUSH2 0x2DF DUP2 PUSH2 0x2C5 JUMP JUMPDEST DUP3 MSTORE POP POP JUMP JUMPDEST PUSH0 PUSH1 0x20 DUP3 ADD SWAP1 POP PUSH2 0x2F8 PUSH0 DUP4 ADD DUP5 PUSH2 0x2D6 JUMP JUMPDEST SWAP3 SWAP2 POP POP JUMP JUMPDEST PUSH0 DUP2 MLOAD SWAP1 POP SWAP2 SWAP1 POP JUMP JUMPDEST PUSH0 DUP3 DUP3 MSTORE PUSH1 0x20 DUP3 ADD SWAP1 POP SWAP3 SWAP2 POP POP JUMP JUMPDEST DUP3 DUP2 DUP4 MCOPY PUSH0 DUP4 DUP4 ADD MSTORE POP POP POP JUMP JUMPDEST PUSH0 PUSH1 0x1F NOT PUSH1 0x1F DUP4 ADD AND SWAP1 POP SWAP2 SWAP1 POP JUMP JUMPDEST PUSH0 PUSH2 0x340 DUP3 PUSH2 0x2FE JUMP JUMPDEST PUSH2 0x34A DUP2 DUP6 PUSH2 0x308 JUMP JUMPDEST SWAP4 POP PUSH2 0x35A DUP2 DUP6 PUSH1 0x20 DUP7 ADD PUSH2 0x318 JUMP JUMPDEST PUSH2 0x363 DUP2 PUSH2 0x326 JUMP JUMPDEST DUP5 ADD SWAP2 POP POP SWAP3 SWAP2 POP POP JUMP JUMPDEST PUSH0 PUSH1 0x20 DUP3 ADD SWAP1 POP DUP2 DUP2 SUB PUSH0 DUP4 ADD MSTORE PUSH2 0x386 DUP2 DUP5 PUSH2 0x336 JUMP JUMPDEST SWAP1 POP SWAP3 SWAP2 POP POP JUMP JUMPDEST PUSH0 DUP1 REVERT JUMPDEST PUSH1 0x4 DUP2 LT PUSH2 0x39E JUMPI PUSH0 DUP1 REVERT JUMPDEST POP JUMP JUMPDEST PUSH0 DUP2 CALLDATALOAD SWAP1 POP PUSH2 0x3AF DUP2 PUSH2 0x392 JUMP JUMPDEST SWAP3 SWAP2 POP POP JUMP JUMPDEST PUSH0 PUSH1 0x20 DUP3 DUP5 SUB SLT ISZERO PUSH2 0x3CA JUMPI PUSH2 0x3C9 PUSH2 0x38E JUMP JUMPDEST JUMPDEST PUSH0 PUSH2 0x3D7 DUP5 DUP3 DUP6 ADD PUSH2 0x3A1 JUMP JUMPDEST SWAP2 POP POP SWAP3 SWAP2 POP POP JUMP INVALID LOG2 PUSH5 0x6970667358 0x22 SLT KECCAK256 0xD6 0xE0 0xD5 PUSH16 0xCA61469A7444AB2D119574561743452 PUSH24 0x9E20C99E8BDD47DF18D36D64736F6C634300081A00330000 "
				},
				"gasEstimates": {
					"creation": {
						"codeDepositCost": "209200",
						"executionCost": "249",
						"totalCost": "209449"
					},
					"external": {
						"currentStage()": "2529",
						"getOrderStage()": "infinite",
						"updateOrderStage(uint8)": "24667"
					}
				},
				"methodIdentifiers": {
					"currentStage()": "5bf5d54c",
					"getOrderStage()": "73d476ad",
					"updateOrderStage(uint8)": "f1222782"
				}
			},
			"storageLayout": {
				"storage": [
					{
						"astId": 9,
						"contract": "contracts/enum1.sol:OrderStatusTracker",
						"label": "currentStage",
						"offset": 0,
						"slot": "0",
						"type": "t_enum(OrderStage)6"
					}
				],
				"types": {
					"t_enum(OrderStage)6": {
						"encoding": "inplace",
						"label": "enum OrderStatusTracker.OrderStage",
						"numberOfBytes": "1"
					}
				}
			},
			"userdoc": {
				"kind": "user",
				"methods": {},
				"version": 1
			}
		}
	}
}